:020000040800F2
:10000000203E002001010008FB1F0008EB1D000836
:10001000F91F0008BB090008AB370008000000000A
:100020000000000000000000000000009D23000808
:10003000490A000800000000BF2200089F230008B2
:100040001B0100081B0100081B0100081B01000820
:100050001B0100081B0100081B0100081B01000810
:100060004D0A00081B0100081B0100081B010008C5
:100070001B0100081B0100081B0100081B010008F0
:100080001B0100081B0100081B0100081B010008E0
:10009000353700081B0100081B0100081B01000880
:1000A0001B0100081B0100081B0100081B010008C0
:1000B0001B0100081B0100081B0100081B010008B0
:1000C0001B0100081B0100081B0100081B010008A0
:1000D0001B0100081B0100081B0100081B01000890
:1000E0001B0100081B0100081B010008DFF80CD0F1
:1000F00000F026FC00480047C5410008203E0020D3
:100100000648804706480047FEE7FEE7FEE7FEE7B1
:10011000FEE7FEE7FEE7FEE7FEE7FEE70524000850
:10012000ED000008202A04DB203A21FA02F0002129
:10013000704721FA02F3D040C2F1200291400843F7
:100140001946704740EA01039B0703D009E008C93C
:10015000121F08C0042AFAD203E011F8013B00F88C
:10016000013B521EF9D27047D2B201E000F8012BD8
:10017000491EFBD270470022F6E710B513460A4627
:1001800004461946FFF7F0FF204610BDF0B480EAA0
:100190000102D40F4200B2EB410F02D202460846E0
:1001A00011464A0042D0C30DDDB2C1F3C752AD1AA9
:1001B000202D35DAC1F3160141F4000204B1524298
:1001C000C5F1200602FA06F12A411044B3EBD05FD4
:1001D00023D0C4B1012DA0EBC35009DCF0BC4FF01B
:1001E000004202EAC352DBB200F5000000F01CBB83
:1001F000400000F1807000EBC350A0F1807040EA35
:10020000D170490009E0490841EAC071A0EBC35030
:1002100000F50000400800EBC350F0BC00F0FBBA52
:100220006142012202EB4101001BF6E7F0BC70477E
:1002300081F00041AAE780F00040A7E780EA0102D0
:1002400010B502F00043400022D04A001FD0010E3A
:1002500001EB1261C0F35600C2F3560240F40000F5
:1002600042F40002A0FB022000047F39140400D0F5
:10027000401C50EA124001D44000491EC2B20C0694
:1002800004EBD010401C4008802A02D003E000207C
:1002900010BD20F00100002900DA0020184310BD35
:1002A00030B480EA010202F0004530F0004221F053
:1002B000004013D090B1C30DD40DC2F31601C0F3AA
:1002C0001600E41A41F4000140F400027D3491422A
:1002D00001D3641C00E04900002C02DA30BC00208D
:1002E00070474FF400000023914201D3891A034361
:1002F00040084FEA4101F7D151B1914202D14FF08C
:10030000004105E002D24FF0010101E06FF0010170
:1003100003EBC450284430BC00F07DBA420005D045
:10032000C0F3C7525242914201DC0020704700EBFB
:10033000C15070472DE9FE4F804681EA0300C00F8F
:100340000C46009021F0004123F00045B8EB02007C
:10035000A94105D24046214690461C460B4602461E
:1003600023F00040104347D0270DC7F30A00C3F322
:100370000A510290401A019040286BDAC3F313002F
:1003800040F4801B0098924620B10023D2EB030A70
:1003900063EB0B0B01985946C0F14002504600F048
:1003A00019FA06460D4650465946019A00F021FAC0
:1003B00010EB08006141002487EA115284EAE773D8
:1003C0001A4340D0009A62B3019A012A4FEA0752B9
:1003D00015DC001B61EB02014FF0004202EA0752FC
:1003E000CDE90042001C41F5801132462B4600F059
:1003F00058FA03B0BDE8F08F40462146F9E7001BEC
:1004000061EB0201001C41F5801300185B412018CC
:10041000A2F5001747EB030140EAD570B6196D410C
:1004200011E06D084FEA360645EAC0754FEA0752FB
:10043000001B61EB0201001C41F5801149084FEAE5
:1004400030000019514132462B4603B0BDE8F04F51
:1004500000F018BA0098012240000023D0EB0202FD
:1004600063EBE073009821464FEAE074B8EB0000BC
:1004700061EB0401E9E783F000435BE781F00041B1
:1004800058E72DE9FE4F81EA030404F0004421F00F
:10049000004100944FF0000B23F0004350EA0104A8
:1004A0005ED052EA03045BD0C3F30A54C1F30A5589
:1004B0002C44A4F2F3340194A0FB0254C1F31301C1
:1004C00041F48011C3F3130343F4801301FB02448E
:1004D00000FB034E840A970A44EA815447EA835793
:1004E000A4FB076802958D0A05FB07854FEA932C4C
:1004F00004FB0C542705029D4FEA065847EA1637BD
:10050000B5EB08056EEB070C870E920E47EA8117D4
:1005100042EA8312A7FB0201B6EB0B0164EB000475
:100520002B0D43EA0C335E1844EB1C50DA4651465F
:10053000E7FB0201C5F313044FEA0B3343EA1453FC
:100540004FEA0432019C43EA0603A4F10C0402942E
:10055000009CCDE900B400F0A4F903B0BDE8F08F31
:1005600000200146F9E72DE9F04D81EA030404F08B
:10057000004B21F0004514464FF0000A23F00041E3
:1005800050EA050220D054EA01021DD0C5F30A57F3
:100590000246C5F31303C1F31300C1F30A5640F436
:1005A000801543F48013A7EB0608101BD64608F20B
:1005B000FD3873EB050002D308F1010801E0921841
:1005C0005B41B8F1000F03DA00200146BDE8F08D71
:1005D00000204FF48011064684460EE0171B73EB93
:1005E000050705D3121B63EB050306434CEA010C18
:1005F00049084FEA300092185B4150EA0107EDD1FB
:1006000052EA030012D082EA040083EA050108439B
:1006100005D0101BAB4106D20122002306E00022C8
:100620004FF0004302E06FF0010253101AEB060096
:100630004CEB085110EB0A0041EB0B01BDE8F04D0B
:1006400000F020B970B521F0004303430CD0C1F392
:100650000A550024D5EB040564EB0403D617AD1A44
:10066000B34102DB0020014670BD201841EB02516E
:1006700070BDC10F80EAE0700844CA0796230021CC
:1006800000F0D2B80EB5C10F80EAE0700844CA0786
:10069000002140F233438DE80E000A460B4600F07D
:1006A00000F903B000BD00F0004220F00040C10D91
:1006B000C0F3160040F400007F2901DA00207047E3
:1006C000962903DCC1F19601C84001E096398840C3
:1006D000002AF4D04042704770B5C1F30A5201F0CD
:1006E00000450024C1F3130140F2FF3341F48011AF
:1006F0009A4201DA002070BD40F233439A42A2F2DE
:10070000334203DC5242FFF70DFD00E090402C43E2
:10071000F1D0404270BD00F0004230F000400AD0FD
:10072000C10D01F56071C0F3160042EA0151C20823
:1007300040071143704700200146704730B5041E42
:1007400071F1000404DB4FF00044404264EB01010E
:10075000141E73F1000405DB1C464FF000435242A7
:1007600063EB04038B4208BF824230BD30B5041EE8
:1007700071F1000404DB4FF00044404264EB0101DE
:10078000141E73F1000405DB1C464FF00043524277
:1007900063EB0403994208BF904230BD01F000436F
:1007A00030B421F0004150EA010206D00A0DA2F552
:1007B0006072C1F31301002A02DC30BC00207047D4
:1007C000440F44EAC104C100E01830BC00EBC25041
:1007D00000F021B8202A04DB203A00FA02F10020C0
:1007E00070479140C2F1200320FA03F3194390406F
:1007F0007047202A06DBCB17203A41FA02F043EA81
:10080000E07306E041FA02F3D040C2F120029140C9
:100810000843194670470029A8BF7047401C49008B
:1008200008BF20F00100704710B4B0FA80FC00FA55
:100830000CF050EA010404BF10BC704749B1CCF180
:10084000200421FA04F411FA0CF118BF012121430C
:100850000843A3EB0C01CB1D4FEA00614FEA1020C7
:1008600042BF002010BC704700EBC3501044002969
:10087000A4BF10BC7047401C490008BF20F0010015
:1008800010BC704710B5141E73F1000408DA401C48
:1008900041F1000192185B411A4301D120F001009F
:1008A00010BD2DE9F04D92469B4611B1B1FA81F28F
:1008B00002E0B0FA80F220329046FFF78BFF044648
:1008C0000F4640EA0A0041EA0B0153465A460843E4
:1008D00013D0114653EA010019D0C8F14002504626
:1008E000FFF720FC05460E46504659464246FFF7A4
:1008F00071FF084305D0012004E020463946BDE8D9
:10090000F08D0020054346EAE0762C4337430A98F1
:100910006305E40AA0EB08000022FD0A44EA4754FC
:100920000A3002D500200146E9E7010510196941A6
:10093000DDE9084500196941BDE8F04DA2E7000076
:10094000064C074D06E0E06840F0010394E807001C
:1009500098471034AC42F6D3FFF7CCFB144800089C
:100960003448000870B58C1810F8015B15F00703C7
:1009700001D110F8013B2A1106D110F8012B03E038
:1009800010F8016B01F8016B5B1EF9D12B0705D440
:100990000023521E0DD401F8013BFAE710F8013B89
:1009A000CB1A921C03E013F8015B01F8015B521EA5
:1009B000F9D5A142D8D3002070BDFEE700207047D2
:1009C0000020704710B500220449054801F030FEB0
:1009D0000449034801F026FE002010BD880D0020C8
:1009E000DC040020A009002070B50C460546014635
:1009F000074801F017FE064801F0F8FD29460548B2
:100A00002268FFF79FFB044920780870002070BD22
:100A1000DC0400207C02002001000020094A10B5FF
:100A2000D2F8B822D2F814220AB1012010BD0A4629
:100A30000146044801F0FCFDBDE81040014801F00A
:100A400055BE0000DC0400207047000010B50420F3
:100A500000F058F901490120087010BD0000002085
:100A60007047000006490020C8610648016941F04E
:100A700004010161016941F040010161704700001A
:100A80000016002000200240064A0021D1610649DC
:100A90000A6942F002020A614861086940F04000B8
:100AA000086170470016002000200240044B00221D
:100AB000DA61044A136943F001031361018070474E
:100AC000001600200020024014480022C168CB0616
:100AD000134904D5CA6942F00202CA611022C368F0
:100AE0005B0705D5CB6943F00103CB6142F00402FB
:100AF000C369DB0707D0CB6943F00403CB61C1694D
:100B000021F00101C161A2F58071013901D0C260FB
:100B10007047C16921F00101C161704700200240A6
:100B20000016002070B5054600F0EEF90646114C9F
:100B300009E0681C07D025B100F0E6F9801BA84247
:100B400001D9032070BDE068C007F2D1E0688006DB
:100B500001D52020E060E068C00605D4E069C00748
:100B600002D1E068400703D5FFF7AEFF012070BD5A
:100B7000002070BD0020024070B5044600F0C4F9AA
:100B80000546601C02D004480078044400F0BCF91B
:100B9000401BA042FAD370BDA00000202DE9F04711
:100BA000054626480F460126017E01290FD0012166
:100BB000814601762868DFF888804CF2503402289C
:100BC00008D0A2462046FFF7ADFFA8B131E00220D1
:100BD000BDE8F0872046FFF7A5FF08BB0120FFF71F
:100BE00041FF2046FFF79EFFD8F81010064621F07F
:100BF0000401C8F810101CE04FF0FF303860AC68FA
:100C000011E02046FFF740FF5046FFF78BFFD8F872
:100C10001010060021F00201C8F8101001D03C604D
:100C200007E004F58064D5E9020100EB8120A042D1
:100C3000E7D8002189F818103046C9E700160020CF
:100C4000002002400348016941F080010161002059
:100C500070470000002002402DE9F05F07461C4865
:100C600088460024017E15461E46012909D001212F
:100C7000814601764CF2503A5046FFF753FF18B1C7
:100C800022E00220BDE8F09F012F02D0022F00D009
:100C90000427D346DFF83CA0220128463146FFF75F
:100CA00041FA81B208EB4400FFF700FF5846FFF716
:100CB00039FFDAF8102022F00102CAF8102018B922
:100CC000641CE4B2BC42E7D3002289F81820D9E7BB
:100CD0000016002000200240064900200A69120682
:100CE00007D5054A4A60054A4A600969090600D5E0
:100CF000012070470020024023016745AB89EFCDFA
:100D000070470000044910B50A68024202D008602A
:100D1000FFF7F6FF10BD0000140401402DE9F84F65
:100D2000DFF8B891002409F1040A0AF1040B234604
:100D30000F270BF1040EC9E00125A5402A40AA4265
:100D40007DD1674ED1F804C0ACEB0608B44532D073
:100D500014DCBCF1030F3AD009DCBCF1000F2AD03F
:100D6000BCF1010F1CD0BCF1020F31D11DE0BCF170
:100D7000110F17D0BCF1120F2AD119E0B8F5881F56
:100D800019D006DCB8F5803F15D0B8F5801F1FD10B
:100D900011E0B8F5001F0ED0B8F5041F18D10AE015
:100DA000CB6815E0CB681B1D12E0CB6808330FE061
:100DB000CB680C330CE08B682BB1012B4FF0080390
:100DC00003D0456104E0042302E0056100E0002354
:100DD000FF2A01D8064601E000F104064FEA840527
:100DE00001D9A5F12005D6F8008007FA05FC28EA0C
:100DF0000C0803FA05F548EA0508C6F800804D68B6
:100E0000ED0062D5374DAE6946F00106AE61AD69C1
:100E100024F0030605F001050095334D06EB050CA3
:100E2000DCF80850A607360F07FA06F825EA080589
:100E3000DFF8B880404503D14FF0000817E044E0E8
:100E4000DFF8AC80404502D14FF001080FE0DFF839
:100E5000A480404502D14FF0020808E0DFF89880F6
:100E6000404502D14FF0030801E04FF0040808FAB2
:100E700006F848EA0508CCF808804D68D9F8006003
:100E8000ED034D4601D5164300E096432E604D68B4
:100E9000DAF80060AD03554601D5164300E09643ED
:100EA0002E604D68DBF80060ED025D4601D516430B
:100EB00000E096432E604D68DEF80060AD02754696
:100EC00001D5164300E096432E60641C0D682A4647
:100ED000E5407FF431AFBDE8F88F00000004014029
:100EE0000000111000100240000001400008014005
:100EF000000C014000100140001401400AB10161E2
:100F000070470904FBE70000014880687047000053
:100F1000A000002002488168027811448160704777
:100F2000A0000020074810B5016841F010010160E1
:100F3000032000F075F8002000F006F800F024F817
:100F4000002010BD0020024070B50D4D04464FF446
:100F50007A712878B1FBF0F00A490968B1FBF0F02A
:100F600000F02FFF48B9102C07D200222146501E56
:100F700000F036F800206C6070BD012070BD0000EC
:100F8000A0000020AC0000200C4808B5816941F0A9
:100F900001018161816901F001010091C16941F0A4
:100FA0008051C161C06900F08050009004484168E0
:100FB00021F0E06141F00071416008BD0010024085
:100FC00000000140002809DB00F01F0201219140D0
:100FD0004009800000F1E020C0F8001170470000D7
:100FE000F0B40E4B1B680C46C3F30223C3F1070594
:100FF000042D00D90425191D072901D2002300E082
:10100000DB1E012606FA05F1491E214099409E404B
:10101000761E16403143F0BC02F0C8BB0CED00E078
:10102000064900F0070208684FF6FF03184040EA3F
:101030000220034A10430860704700000CED00E0F6
:101040000000FA0510B50C0605D501F0070100EB0C
:101050004110283003E000EB411000F5947099B284
:1010600032B1012202730181190C4181002010BDAF
:1010700000220273C180F9E7704700EB4112D0F8FB
:101080006802D26B01F0E1BC00EB4112D0F86802BB
:10109000D2F83C2101F03CBD70B504460B0601F0CE
:1010A000070004EB40114FF001024FF0000503D59B
:1010B00081F82920283103E081F8295101F5947144
:1010C000087094F82802012808D084F828222068A3
:1010D00002F063F984F82852002070BD022070BD30
:1010E00070B5044601F00F006268904201D90120FA
:1010F00070BD0B0601F0070004EB40114FF0010238
:101100004FF0000503D581F82920283103E081F84C
:10111000295101F594718D70087094F82802012806
:1011200008D084F82822206802F0DAF984F82852DE
:10113000002070BD022070BD01F0070100EB4110DE
:10114000D0F8440170472DE9F04104460F0601F044
:10115000070004EB40114FF001064FF0000503D5E6
:1011600081F82960283103E081F8295101F5947153
:1011700008700A61CB704A7802B1C881022B00D195
:101180000D7194F82802012809D084F8286220689B
:1011900001F0CEFF284684F82852BDE8F0810220F5
:1011A000FBE770B50C4601F0070500EB4511C1E9FE
:1011B0004F230022C1F8442181F8292181F82851C8
:1011C00001F594716207006802F0DFF9002070BD3C
:1011D00070B504460D4601F007006168884201D9E8
:1011E000012070BD29064FF000064FF0010205D521
:1011F00004EB401181F82920283105E004EB45116A
:1012000081F8296101F594718A70087094F82802B8
:10121000012807D084F82822206802F09DF9680789
:1012200002D006E0022070BD04F50C71206802F0C7
:1012300055F984F82862002070BD70B50C4601F0A5
:10124000070500EB4511C1E90F2300224A64012282
:1012500081F8292001F8285F6207006802F095F9FB
:10126000002070BD10B50446006802F069FA000461
:1012700002D5204600F0C2FE206802F061FA400567
:101280000CD5206830F8441F21F48061018020468D
:1012900000F0FCF80021204600F013F9206802F06D
:1012A0004FFA400405D5206830F8441F21F48041EE
:1012B0000180206802F044FA800405D5206830F8E7
:1012C000441F21F400510180206802F039FAC00463
:1012D00014D5206830F8401F21F0040101802068F7
:1012E00030F8401F21F008010180204600F0E1F8AD
:1012F000206830F8441F21F480510180206802F0FA
:101300001FFA00051FD5206830F8401F41F0080182
:101310000180206830F8441F21F4006101802068BA
:1013200030F8401F41F004010180206802F008FA03
:10133000C00405D5206830F8441F21F48051018095
:10134000204600F0F3F8206802F0FAF9800508D58D
:10135000206830F8441F21F400710180204600F01D
:10136000ACF8206802F0ECF9C00505D5206830F82B
:10137000441F21F48071018010BD00002DE9F0416F
:1013800086B0040004D094F82902002520B108E0BA
:10139000012006B0BDE8F08184F82852204600F014
:1013A00057F8032084F82902206802F090F804F12D
:1013B0001001142288466846FEF7C4FE94E80F0028
:1013C00001F0E9FF0227B0BB0021206802F0D2F94A
:1013D000002001260DE000BF04EB401181F82960D8
:1013E00001F8280FC881CD700D614D61401CC0B25D
:1013F0008D6161688142EFD800200FE004EB40115D
:1014000081F8295181F8280181F82B51C1F8385110
:10141000C1F83C51401CC0B2C1F8405161688142E2
:10142000ECD8142241466846FEF78CFE94E80F0083
:1014300002F03EF810B184F82972A9E784F824502C
:1014400084F82962206802F031F80020A1E700004A
:1014500008B500680B49884212D10B48C16941F4B4
:101460000001C161C069002200F400000090114633
:101470001420FFF7B5FDBDE808401420FFF7A2BD1A
:1014800008BD0000005C00400010024070B504463A
:1014900080680125022801D0FFF7E2FA2946D4F836
:1014A000680201F01CFCD4F86802BDE8704001F04D
:1014B000D8BBD0F8680201F0FCBBD0F8680201F09C
:1014C00002BC10B5044690F8280201280BD0012078
:1014D00084F8280284F82410206802F04DF90020D6
:1014E00084F8280210BD022010BDD0F8682200F553
:1014F0000C71104601F0FFBB10B5044690F82802AD
:10150000012810D0012084F8280201462046FFF768
:10151000B3FD206801F0C8FF206802F004F9002044
:1015200084F8280210BD022010BD000010B504464A
:10153000D0F8680201F01EFCA069002804D003481E
:10154000016841F00601016010BD000010ED00E0EF
:101550002DE9F84305460078354CC00754D0E069C2
:101560000026C00008D4E06940F08050E061E069E6
:10157000012600F0805000902E480168C90512D461
:101580000168804641F480710160FFF7BDFC0746A9
:1015900005E000BFFFF7B8FCC01B642823D8D8F8CB
:1015A0000000C005F6D5206A10F4407021D0A9884B
:1015B00001F4407181421CD0206A1F49012220F4AD
:1015C00040700A6000220A602062C00711D0FFF755
:1015D0009BFC074641F2883808E000BFFFF794FC07
:1015E000C11B414502D90320BDE8F883206A80076A
:1015F000F4D5206A696820F44070084320621EB167
:10160000E06920F08050E0612878800705D56068A7
:10161000A96820F44040084360602878C00605D5DA
:101620006068E96820F48000084360600020DBE720
:101630000010024000700040400442422DE9F04793
:101640000F46050061D0434E306800F00700B842F5
:1016500009D2306820F0070038433060306800F06D
:101660000700B84251D128683B4C810712D540078A
:1016700003D5606840F4E06060602878000703D517
:10168000606840F4605060606068A96820F0F00015
:10169000084360602878C00728D06868012810D007
:1016A0002168022810D0890700292EDA616821F00C
:1016B000030101436160FFF727FC804641F288394E
:1016C0000DE021688903EFE78901EDE7FFF71CFCD6
:1016D000A0EB0801494502D90320BDE8F087606806
:1016E000696800F00C00B0EB810FEFD1306800F0BA
:1016F0000700B8420BD9306820F00700384330604B
:10170000306800F00700B84201D00120E5E72878F2
:10171000400705D56068E96820F4E0600843606030
:101720002878000706D56068296920F4605040EAEF
:10173000C100606000F018F86168084AC1F3031145
:10174000515CC8400649086006480068FFF7FCFB8A
:101750000020C2E7002002400010024004480008B8
:10176000AC000020A400002012A185B00FC98DE8B4
:101770000F0014A0144A006804905168134801F047
:101780000C03042B10D0082B0ED1C1F38343C903E3
:101790001DF803000AD5516804AAC1F34041515C09
:1017A0000A4A5043B0FBF1F005B07047084948437E
:1017B000FAE7000002030405060708090A0B0C0DEE
:1017C0000E0F1010010200000010024000127A00FB
:1017D00000093D002DE9F84F040070D02078C04D7D
:1017E000C00749D06868C0F38100012807D0686845
:1017F000C0F38100022809D16868C00306D52868B3
:10180000800339D560680028E7D035E06068B0F51E
:10181000803F0BD010B1B0F5A02F11D0286820F474
:1018200080302860286820F4802002E0286840F496
:1018300080302860606890B1FFF766FB06460AE0DA
:10184000286840F480202860F0E700BFFFF75CFBC9
:10185000801B642873D828688003F7D50CE0FFF755
:1018600053FB064605E000BFFFF74EFB801B6428D4
:10187000F0D828688003F7D420789A4E80074FF07C
:1018800001094FF0000839D5686810F00C0F07D037
:101890006868C0F38100022809D16868C00306D4D3
:1018A0002868800714D52069012808D110E0206934
:1018B000B0B1C6F80090FFF727FB074605E00AE144
:1018C000FFF722FBC01B0228C4D828688007F7D581
:1018D0002868616920F0F80040EAC10028600DE046
:1018E000C6F80080FFF710FB074604E0FFF70CFB8B
:1018F000C01B022823D828688007F7D42078000767
:101900002CD57948A169D9B1C0F80090FFF7FCFA4D
:10191000074604E0FFF7F8FAC01B02280FD8686AF0
:101920008007F7D571484FF4FA510068B0FBF1F029
:10193000009000BF0098411E0091FAD20EE080E0B6
:10194000C0F80080FFF7E0FA074604E0FFF7DCFA92
:10195000C01B022875D8686A8007F7D42078400732
:1019600060D5E8690027C00008D4E86940F08050DD
:10197000E861E869012700F0805000905C48016848
:10198000C90513D40168834641F480710160FFF7F3
:10199000BBFA824606E000BFFFF7B6FAA0EB0A00EA
:1019A00064284ED8DBF80000C005F5D5E0680128B2
:1019B0000AD008B1052813D0286A20F00100286257
:1019C000286A20F0040002E0286A40F00100286242
:1019D000E06841F2883B98B1FFF796FA82460BE047
:1019E000286A40F004002862EEE700BFFFF78CFA97
:1019F000A0EB0A0159455AD8286A8007F6D50CE0B1
:101A0000FFF782FA824605E0FFF77EFAA0EB0A01B3
:101A100059454CD8286A8007F6D41FB1E86920F0F0
:101A20008050E861E06988B36968C1F381010229E7
:101A300044D00228C6F8608004D0FFF765FA044657
:101A400038E034E0FFF760FA074604E0FFF75CFA9D
:101A5000C01B02282BD828688001F7D4206AB0F573
:101A6000803F05D16868A16820F4003008436860B1
:101A7000D4E908010843696821F4741108436860D7
:101A8000C6F86090FFF740FA044606E025E000BF84
:101A9000FFF73AFA001B022809D828688001F7D519
:101AA0001BE000BFFFF730FA001B022802D9032019
:101AB000BDE8F88F28688001F4D40EE00128F7D043
:101AC0006868226A00F48031914204D1616A00F4AE
:101AD0007010884201D00120EAE70020E8E700000A
:101AE000001002400000424280044242AC0000204C
:101AF0000070004070B5040005D00025A56294F880
:101B0000510010B106E0012070BD84F8505020460D
:101B100000F02EF8022084F851002068016821F0BE
:101B200040010160D4E901010843D4E903121143E3
:101B3000084361690843218B01F400710843E1699E
:101B40000843216A0843A16A084321680860A06924
:101B5000042101EA1040216848602068C16921F42D
:101B60000061C1616565012084F85100002070BDED
:101B700030B585B000240094019402940394006869
:101B80001449884223D11448816941F4805181610C
:101B9000816901F480510491816941F004018161FE
:101BA00080690E4D00F004000490A02000900220F7
:101BB00001900320039069462846FFF7AFF84020C4
:101BC000CDE90004694628460294FFF7A7F805B05E
:101BD00030BD00000030014000100240000801400C
:101BE0002DE9F84F044690F8500000270A9E1D4644
:101BF00092468B464FF0010901280ED0012084F84F
:101C00005000FFF781F9804694F85100616801287F
:101C10000CD0B1F5827F07D102E00220BDE8F88F39
:101C2000A16809B9042801D00227C2E0BBF1000F66
:101C300027D0BAF1000F24D01DB394F85100042826
:101C400002D0052084F8510000206065C4F838A057
:101C5000E587A587C4F830B0E586A5862064606472
:101C600020680168490603D4016841F04001016021
:101C7000E068B0F5006F606805D0E8B3012D46D08C
:101C80007FE0012795E008B1012D39D1206B216853
:101C90000088C860206B801C2063E08E401EE086B8
:101CA0002EE02068816889070FD5E18E69B1B9F10E
:101CB000010F0AD1216B0988C160206B801C206351
:101CC000E08E401EE0864FF0000920688168C90759
:101CD0000CD0E18F51B1C068A16B0880A06B801C53
:101CE000A063E08F401EE0874FF00109FFF70CF979
:101CF000A0EB0800B04200E009E001D3701C50D115
:101D0000E08E0028CDD1E08F0028CAD13FE0206BC3
:101D1000216800780873206B401C2063E08E401E11
:101D2000E0862EE02068816889070FD5E18E69B1D1
:101D3000B9F1010F0AD1216B09780173206B401CA6
:101D40002063E08E401EE0864FF000092068816825
:101D5000C9070CD0E18F51B1C068A16B0870A06BAE
:101D6000401CA063E08F401EE0874FF00109FFF7A1
:101D7000CBF8A0EB0800B04202D3701C01D010E0F9
:101D80007EB1E08E0028CDD1E08F0028CAD1424636
:101D90003146204600F094FA28B1012720206065E2
:101DA00007E0032705E0A06818B92068C1688068CB
:101DB0000090012084F85100002084F8500038463B
:101DC0002CE710B5401EB0F1807F01D3012010BD7B
:101DD0004FF0E02460610F21601701F0E7FC002064
:101DE000A06107202061002010BDFEE7F0B50023B0
:101DF0000A24302537261F4611E000BFB4EB107FC0
:101E000002D905EB107C01E006EB107C01F813C051
:101E100001EB430C00015B1C8CF80170DBB29342B8
:101E2000ECD3F0BD2DE9F04F85B000244948009473
:101E3000019402940394816941F0100181618169E8
:101E400001F010010491816941F0200181618169F3
:101E500001F020010491816941F0040181618169EF
:101E600001F004010491816941F0080181618069F8
:101E7000012200F00800DFF8E0B095030490294645
:101E80005846FFF73BF8002248F205015846FFF795
:101E900035F84FF48059012249463048FFF72EF8B3
:101EA000002204212E48FFF729F84FF4407A00223F
:101EB00051462A48FFF722F800954FF00308012504
:101EC000CDF80C80CDE9015469465846FEF726FF4F
:101ED00048F201000226CDE90005CDE90246694637
:101EE0005846FEF71BFF04270097CDE901546946C9
:101EF00058460395FEF712FF1A480097CDE90104F2
:101F000069461948FEF70AFFCDF800900396CDE91F
:101F1000015469461148FEF701FF00970396CDE989
:101F2000015469460E48FEF7F9FECDF800A0CDF841
:101F30000C80CDE9015469460848FEF7EFFE002207
:101F400011460820FFF74CF80820FFF73BF805B0D2
:101F5000BDE8F08F0010024000100140000C01406D
:101F60000014014000003110000801400C480B49EA
:101F70004FF4006201604FF4827141600021C0E9BA
:101F8000021292100161C0E905121822C0E907216E
:101F9000416281620A21C162FFF7ACBD003001409D
:101FA000C401002010B500220F49104800F026FDA2
:101FB00008B1FEF755FD0E490C4800F001FF08B1CD
:101FC000FEF74EFD0B49094800F024FB08B1FEF76F
:101FD00047FD064800F04AFF002803D0BDE8104046
:101FE000FEF73EBD10BD000040000020DC040020D4
:101FF0008C01002090000020FEE770472DE9F05F83
:10200000044648F60F7B4FF0020A4FF480684AE11D
:10201000B0F8441011F00F0629D030F826703904BA
:1020200079D530F8261040F68F72114041F08001CA
:1020300020F8261004EB461595F8340105F5947543
:102040000028206868D0297830F8212052047DD5F6
:10205000B0F850200AEBC1010A4408EB4201415A92
:10206000C1F309015FEA010971D02A89D2E0C906EA
:102070002DD4018801EA0B0141F400410180206860
:1020800004F12805B0F850202B780AEBC3010A446C
:1020900008EB4201405AC0F309006064E16B084458
:1020A000E06300212046FEF7E8FF94F824000028B2
:1020B000ADD0A8690028AAD194F82400216840F086
:1020C0008000A1F84C00002084F82400EBE0018897
:1020D00004F594750A0520D5B0F850202B78062118
:1020E00001EBC3010A4408EB4201405A04F50C71AC
:1020F000C0F30903EB61EA88206801F025FB206842
:10210000018840F68F72114041F080010180204625
:10211000FFF7EBF9C7E0A2E058E0090455D50188C4
:1021200040F68F72114041F0800101802168B1F8C2
:1021300050202B78062000EBC300024408EB42003D
:10214000085A83059B0DEB6110D001E053E065E078
:10215000696959B1EA88206801F0F6FAE9696869A5
:102160000844686100212046FEF78EFF2068B0F821
:1021700050100844296900F20C4051B13E2910D892
:102180004A08C90700D0521C4FF6FF7101EA8221AC
:102190000FE0018821F4F8410180018841F40041F9
:1021A00007E04A09C90600D1521E4FF4004141EA36
:1021B00082210180206801884BF68F72114081F4E2
:1021C000405148F28002114301806CE0B0F8502089
:1021D0002B78062101EBC3010A4408EB4201415A66
:1021E000C1F309015FEA010924D0EA884B46696915
:1021F00001F0AAFA1EE0B0F85030062202EBC1014D
:102200005A1808EB4201415AC1F309015FEA01097A
:1022100004D06A894B46696901F096FA28782268E9
:1022200032F8201048F68F73194048F2C003194362
:1022300022F82010E8694844E861686900EB090267
:102240006A61AB6913B12869484504D929782046E9
:10225000FEF71AFF03E029782046FEF7A2FF3806B2
:1022600021D5216804EB461031F8262002EA0B0242
:1022700042F4004221F826202168B1F8505010F8AD
:10228000282F0AEBC2022A4408EB4202895AC1F302
:102290000901C16142690A444261017883692046AB
:1022A00053B1FEF7CAFF2068B0F8441009043FF5A7
:1022B000AFAE0020BDE8F09FFEF7DFFEF3E770470A
:1022C00038B50B46009204460022802100F01CF82D
:1022D000002804D0606D40F020006065032038BD08
:1022E0001CB540F2AB2202EB8020ADF804004FF4A5
:1022F00080500A460090012301A90248FFF770FCB4
:102300001CBD0000C40100202DE9F0411D46174608
:102310000E460446DDF8188008E0681C06D0FEF77B
:10232000F3FDA0EB0800A8420BD255B120688068ED
:1023300036EA000030D00020B842EED10020BDE8DF
:10234000F0812068416821F0E00141606068B0F5EB
:10235000827F0BD1A068B0F5004F02D0B0F5806F3E
:1023600004D12068016821F040010160A06AB0F545
:10237000005F09D12068016821F4005101602068E4
:10238000016841F400510160012084F851000020EF
:1023900084F850000320D2E70120CDE77047FEF714
:1023A000B9BD30B593B028216846FDF7E4FE14218D
:1023B0000AA8FDF7E0FE002401200F941094119468
:1023C000010412948DE8130004900005CDE9081073
:1023D000022507956846FFF7FDF90F20CDE90A05AC
:1023E0006802CDE90C4001210AA80E94FFF726F9F6
:1023F00010200F90800412900FA8FFF7A9F813B0D7
:1024000030BD00000D48016841F0010101604168E4
:102410000B4A1140416001680A4A1140016001689D
:1024200021F480210160416821F4FE0141604FF4F4
:102430001F0181600449C00308607047001002401A
:102440000000FFF8FFFFF6FE08ED00E02DE9F04187
:10245000D0F8C032D0F8B822CAB101EB810400EB49
:1024600084040025E6693EB103EB41139B6BB6FB88
:10247000F3F703FB176323B1C2F814520020BDE841
:10248000F08100231A46E56100F07DFCF6E70220AA
:10249000F5E770B50546D0F8B84200F07AFBC4F80D
:1024A0000C02D5F8B80248B1D5F8BC12D4F8040231
:1024B000CA6804F503719047002070BD022070BD0A
:1024C00070B504460026812100F0B6FA00250121EE
:1024D0002046E56200F0B0FA82212046C4F86C5133
:1024E00000F0AAFA2564D4F8B80248B1D4F8BC02C6
:1024F00004F52E7440688047206800F014FE2560C3
:10250000304670BD10B5D0E9AE4159B194F8000223
:10251000FF2807D08B6894F8012221469847FF20B6
:1025200084F80002002010BD0A2101800048704795
:10253000B4000020432101800048704704010020BE
:102540004321018000487047C000002043210180E2
:1025500000487047480100202DE9F041044600265C
:10256000007C4FF40077012590B3402302228121A3
:10257000204600F061FB4023E56202220121204653
:1025800000F05AFB0823032282212046C4F86C5134
:1025900000F052FB4FF40770256400F0C5FDC4F84D
:1025A000B802F8B10546D4F8BC02006880470020A4
:1025B000C5F81402C5F81802207CD5F8042298B199
:1025C00040230121204600F043FB3046BDE8F08166
:1025D000FFE73B4602228121204600F02DFB3B46CF
:1025E000E562CAE70126F0E73B46EAE710B5D0F816
:1025F000B81269B1027C002AD1F8042205D0402328
:10260000012100F025FB002010BD4FF40073F7E717
:10261000022010BD02460220002902D00020C2F88C
:10262000BC127047D0F8B802C0F8041200207047FE
:10263000D0F8B802C0F81022C0F808120020704785
:102640002DE9FC410546D0F8B87200208DF8000055
:10265000ADF80400064608780C4610F0600121D061
:1026600020293BD1E288AAB10006607807D5D5F8C9
:10267000BC128B6839469847E288394626E087F8CD
:102680000002A07987F80102E2883946284600F066
:102690006AF828E0D5F8BC12607800228B682146E1
:1026A000984720E0607820B10A2809D00B2815D17E
:1026B00010E095F89C02032810D1022201A905E040
:1026C00095F89C02032809D101226946284600F0AA
:1026D00064F808E095F89C02032804D021462846B7
:1026E00000F036F802263046BDE8FC8110B5D0F87F
:1026F000B812A1B1D1F814220AB1012010BD0122F3
:10270000C1F81422D1F810220263B1F8102293B25A
:10271000D1F80822812100F036FB002010BD0220F4
:1027200010BD10B5D0F8B42252689047002010BDFB
:10273000134610B50A46002100F08AFA002010BDA9
:10274000134610B50A46002100F01DFB002010BD05
:1027500010B50446802100F0FBFA2046BDE8104089
:10276000002100F0F5BA10B50323C0F85C21C0F8D1
:102770009432C0F8602113460A46002100F068FA3E
:10278000002010BD10B505210023C0F894121A4690
:10279000194600F05DFA002010BD10B50223C26199
:1027A000C0F89432026213460A46002100F0EBFAA8
:1027B000002010BD10B504210023C0F894121A4661
:1027C000194600F0E0FA002010BD000010B50A46DE
:1027D000024903A000F0E2F8004810BDA007002065
:1027E00043444320436F6E666967000012200880EF
:1027F000004870476000002010B50A46024903A057
:1028000000F0CCF8004810BDA0070020434443204E
:10281000496E74657266616365000000042008807B
:10282000004870475C00002010B50A46024903A02A
:1028300000F0B4F8004810BDA007002053544D69C3
:1028400063726F656C656374726F6E6963730000A9
:1028500010B50A46024903A000F0A0F8004810BDD8
:10286000A007002053544D333220566972747561AD
:102870006C20436F6D506F727400000010B51A2009
:1028800008800A480168001D0468001D00680818D7
:1028900009D008220649FFF7A9FA05490422103198
:1028A0002046FFF7A3FA0248801E10BDE8F7FF1F7D
:1028B00076000020F8B504460020ADF800004888F6
:1028C0000D46010A082948D2DFE801F0470409173C
:1028D00047473C45D4F8B012207C0A6819E0207CB8
:1028E00002260028D4F8B40205D0C16A6846884799
:1028F000014646703EE0816AF8E7C0B206282CD255
:10290000DFE800F0030A1014181CD4F8B002426883
:1029100005E0694690471CE0D4F8B0028268E2B155
:10292000207CF6E7D4F8B002C268F8E7D4F8B00229
:102930000269F4E7D4F8B0024269F0E7D4F8B002D3
:102940008269ECE7207C40B9D4F8B402416B684658
:10295000884701460EE0207C20B129462046FFF73B
:10296000F7FEF8BDD4F8B402016B6846884701460B
:1029700007204870BDF8000048B1EA8852B1824291
:1029800000D90246ADF800202046FFF706FFE88890
:102990000028E6D12046FFF70DFFF8BD70B50023F3
:1029A00000281ED00446002502E06D1CEDB2641C18
:1029B0002678002EF9D1022404EB45041480127805
:1029C000CA545B1C0322CA5400245B1C06E0CA5490
:1029D0005B1CDAB28C54521CD3B2401C0278002A21
:1029E000F5D170BD01004FF0000004D0012901D0E5
:1029F000022901D0022070470120704710B580B134
:102A0000D0F8B43213B10023C0F8B43209B1C0F821
:102A1000B012012180F89C12027000F0BFF8002073
:102A200010BD022010BD10B5D0F8C002FEF758FB53
:102A3000BDE81040FFF7D6BF10B5D0F8C002FEF7D2
:102A40002BFBBDE81040FFF7CDBF2DE9F041174645
:102A5000044651B1D4F8B40242691AB194F89C0208
:102A6000032851D00220BDE8F081D4F8943200252B
:102A700004F11400022B03D0042B3AD0C3B33CE082
:102A8000D0E903639E4207D9F11AC1608AB2394680
:102A90002046FFF755FE12E08068B0FBF3F103FB20
:102AA000110199B9984211D3D4F8981288420DD2E5
:102AB000002211462046FFF743FEC4F89852002337
:102AC0001A461946204600F0C3F816E0D4F8B402BE
:102AD000C16829B194F89C02032801D12046884797
:102AE0008021204600F034F92046FFF74BFE04E039
:102AF000FFE78021204600F02BF994F8A00201287E
:102B000004D184F8A05201E0204690470020AAE7B3
:102B100070B51546044649B1D4F8B40282691AB1B9
:102B200094F89C02032830D0022070BDD4F894128F
:102B300004F5AA70032902D005291ED027E0D0E9A8
:102B400003218A420BD9531AC3600846834200D33B
:102B500003469AB229462046FFF7EAFD17E0D4F86B
:102B6000B402016929B194F89C02032801D12046DE
:102B700088472046FFF71EFE09E000200146C4F802
:102B80009402204600F0E4F801E02046904700203F
:102B900070BDD0F8C002FEF7CFBA000010B50446F1
:102BA0001C481D49C0F86842C4F8C00201600821F1
:102BB00041600221816000218161C1610162FEF7F3
:102BC000DDFB08B1FDF74CFF0022D4F8C00218234A
:102BD000114604F53074FEF735FA5823002280219F
:102BE0002068FEF72FFAC023002281212068FEF71B
:102BF00029FA4FF48873002201212068FEF722FA97
:102C00004FF48073002282212068FEF71BFA002017
:102C100010BD000090130020005C00400A06D0F8B0
:102C2000C00201F07F0100EB411002D590F82A00AC
:102C3000704790F82A01704710B51C461346D0F82B
:102C4000C0022246FEF77FFABDE81040FFF7CABE79
:102C500010B5D0F8C002FEF7A4FABDE81040FFF7A7
:102C6000C1BE70B50022044640231146FFF7E4FFC1
:102C700040260125C4F864613346002280212046A5
:102C8000C4F85851FFF7D8FF6662A56184F89C52DA
:102C90000020C4F894026060C4F8A402D4F8B8021A
:102CA00028B1D4F8B40200214268204690470020A1
:102CB00070BD90F89C12042903D190F89D1280F801
:102CC0009C120020704710B590F89C12032904D183
:102CD000D0F8B412C96901B18847002010BD017451
:102CE0000020704710B5D0F8C002FEF7EAFBBDE83F
:102CF0001040FFF777BE70B5044600F52A70054610
:102D000000F04AF80120C4F89402B4F8AE02C4F806
:102D1000980294F8A80210F01F010AD001290DD0E2
:102D2000022910D000F08001204600F011F80020A8
:102D300070BD2946204600F09EF8F8E72946204657
:102D400000F0CAF9F3E72946204600F01DF9EEE746
:102D500010B5D0F8C002FEF73BFABDE81040FFF70F
:102D600041BE10B5D0F8C002FEF7C6FBBDE810406A
:102D7000FFF738BE90F89C1280F89D12042180F86D
:102D80009C120020704710B5D0F8C002FEF755FA2B
:102D9000BDE81040FFF726BE0A7802704A784270FC
:102DA0008A78CB7802EB032242800A794B7902EBD6
:102DB000032282808A79C97902EB0121C1807047A0
:102DC0000246002011B1C2F8B412704702207047C9
:102DD00010B5D0F8B42202241AB11268904700B995
:102DE0000024204610BD000070B50E461E4D8978A7
:102DF00004462970012931D894F89C0202280BD08E
:102E000003280FD031462046FFF7A2FC2978204640
:102E1000BDE87040FFF785BCD9B10320616084F83C
:102E20009C0209E071B16068884212D0C1B22046AC
:102E3000FFF777FC297861602046FFF7C9FF022879
:102E40000CD006E0022084F89C0220466160FFF767
:102E500068FC2046BDE87040FFF7ACBC3146204618
:102E6000BDE87040FFF774BCB000002010B5FFF75C
:102E700078FF002010BD2DE9F0410A78002612F0FD
:102E8000600208D0202A01D0402A70D1D0F8B422A4
:102E9000926890476DE04B78002201250A2B66D29C
:102EA000DFE803F0405D6557650805652C29FFF7ED
:102EB00001FD5EE004468888D8B9C888C8B948884A
:102EC000802816D200F07F0794F89C02032810D0C7
:102ED00084F89E7239462046FFF704FF2046FFF72C
:102EE00069FC1FB1022084F89C0242E084F89C52E5
:102EF0003FE020463BE0FFF777FF3AE0CB88012B2D
:102F000035D190F89C32012B04D0022B02D0032B38
:102F10002DD104E08260012200F1080116E00122B7
:102F2000011D13E090F89C22012A03D0022A01D04F
:102F3000032A1CD1CA88022A19D1C560D0F8A4126C
:102F400009B10321C160022200F10C01FFF725FC49
:102F50000FE0498801290CD1C0F8A45211E090F883
:102F60009C32012B08D0022B06D0032B04D0FFF794
:102F7000EFFB3046BDE8F08149880129F9D1C0F85E
:102F8000A422FFF717FCF4E72DE9F0410A460446B6
:102F900010780027097910F060030AD0202B01D0A7
:102FA000402B50D1D4F8B40211468368204698478C
:102FB0008FE0C0F34110012806D05078D0B301282B
:102FC0002AD003283FD107E0D4F8B4021146836821
:102FD0002046BDE8F041184794F89C02022802D030
:102FE000032872D10AE071B380296ED02046FFF722
:102FF000AFFE80212046FFF7ABFE6AE0508838B96B
:1030000031B1802904D0D08810B92046FFF7A0FE46
:103010002046FFF7CFFB5CE094F89C020228E2D048
:10302000032852D1508898BB4806F1D02046FFF7BC
:10303000FAFCEDE7FFE794F89C020026022803D093
:10304000032842D112E040E009B180293DD10806B1
:1030500001F07F0000EB800004EB800101D514310A
:1030600001E001F5AA7102220E602AE0080601F0D3
:103070000F0000EB800004EB80000AD5806920B3CC
:1030800001F07F0000EB800004EB800514350BE0BD
:103090001FE0D0F85801C0B101F07F0000EB8000C4
:1030A00004EB800505F5AA7541B1802906D02046BC
:1030B000FFF7B4FD10B10120286000E02E6002226D
:1030C00029462046FFF769FB03E011462046FFF73B
:1030D0003FFB3846BDE8F08170B5054608780C46E0
:1030E00010F0600003D0202801D0402816D195F8B8
:1030F0009C02012803D0022801D003280ED1207998
:1031000001280BD8D5F8B402826828469047E18898
:10311000014306D12846FFF74DFB02E02846FFF7A2
:1031200017FB002070BD70470048704770110020E9
:103130002DE9F0470C784FF0000C30F8243048F6B9
:103140008F121340CA78002A7DD0012A7CD0022A2F
:1031500003D0032A79D04FF0010C48F280021343C8
:1031600020F824300D7830F8254048F68F731C4045
:103170002C43144320F825400F7B48F6BF744BF6D0
:103180008F7948F2C0054CF28006EFB391F80080C9
:10319000C24630F8287048F280181F4047EA0807F6
:1031A00020F82A70B0F8507091F80080074407EBBF
:1031B0000817B1F8088028F00108A7F80084B0F8D3
:1031C000507091F80080074407EB0817B1F80A80A7
:1031D00028F00108A7F808844F7891F80080002FA4
:1031E00030F828704FEA47477ED0002F05DA30F8D4
:1031F00028701F40374320F828700F7830F8278058
:103200005FEA486809D500E033E030F8278008EA33
:10321000030848EA050820F827800F7830F827507F
:103220001D40354320F82750CB780D78012B30F81E
:10323000253003EA040301D083F02003134320F870
:1032400025300B7802E00BE010E00CE030F82310A2
:1032500001EA0901114320F823106046BDE8F08718
:1032600043F4007379E743F4C06376E743F4806383
:1032700073E74F7827B3B0F850600F78064406EB39
:103280000716CF8827F00107A6F800740F7830F8EA
:103290002760760605D530F827601E402E4320F8BB
:1032A0002760CB78012B06D00B7830F82310214013
:1032B00081F02001CEE70B7830F823102140C9E7D8
:1032C000B0F850400D78044404EB0514CD8825F087
:1032D0000105A4F80854B0F850400D78044404EBFC
:1032E000051404F20C4400E030E00D6955B13E2DA8
:1032F00010D86F08ED0700D07F1C4FF6FF7505EA68
:1033000087250FE0258825F4F8452580258845F494
:10331000004507E06F09ED0600D17F1E4FF4004520
:1033200045EA872525800D7830F82540640405D5C9
:1033300030F825401C40344320F825400B7830F805
:10334000231001EA090181F4405183E7002F05DAD7
:1033500030F828701F40374320F828700E7830F876
:1033600026707F0605D530F826701F402F4320F8C1
:1033700026700F7830F827601E402E4320F8276013
:103380000D7830F8253003EA090383F440531343E2
:1033900020F825308FE7002070472DE9F04391F8A1
:1033A0000C804F780A7848F6BF7C4BF68F7948F24C
:1033B000800348F2C0054CF2800648F68F74B8F1DD
:1033C000000F28D0002F30F822704FEA474748D02E
:1033D000002F05DA30F822702740374320F822709A
:1033E0000A7830F822707F0605D530F82270274021
:1033F0002F4320F822700D7830F8252022403243E8
:1034000020F825200C7830F8242002EA0C021A4318
:1034100020F824201AE07FB130F82260760605D526
:1034200030F8226026402E4320F822600A7830F8D7
:10343000221001EA0C010EE030F822506D0405D58F
:1034400030F822502540354320F822500A7830F8D1
:10345000221001EA0901194320F822100020BDE8DA
:10346000F083002F05DA30F822702740374320F828
:1034700022700A7830F82260760605D530F822608E
:1034800026402E4320F822600E7830F82620224075
:103490002A4320F826200C7830F8242002EA09027A
:1034A0001A4320F82420C1E700207047002070470D
:1034B00000B50121A0F840100021A0F84010A0F8AC
:1034C0004410A0F8501000F02EF9002000BD30F894
:1034D000401F21F43F4101800020704700207047C9
:1034E00030B50A7BB2BB4A7848F68F7548F2800443
:1034F000C2B10B7830F82320520607D530F82320CC
:103500002A4048F2C0052A4320F82320CA78012A1D
:1035100020D00A7830F8221048F6BF73194081F0A5
:10352000200114E00A7830F822305B0407D530F827
:1035300022302B404CF280052B4320F822300A78B1
:1035400030F822104BF68F73194081F4405121431B
:1035500020F82210002030BD10B54A780978002AE2
:1035600048F2800330F8212005D048F6BF7422408D
:1035700082F0100204E04BF68F74224082F48052F5
:103580001A4320F82120002010BDF0B50E46054654
:1035900091F801C00022097B3469B06948F28007C4
:1035A000BCF1010F04D0A0424FD9001BB0614EE026
:1035B000A04202D9001BB06101E00446B26169B1CA
:1035C000307835F820104906B5F85010294401EB41
:1035D000001012D5A0F80C44728911E0A3B2F28851
:1035E0002846716900F0CEF8B5F8500031782844CB
:1035F00000EB0110A0F804441EE0A0F80444328956
:10360000A3B22846716900F0BDF8707848F68F7152
:1036100010B1012807D00FE0327835F822000840B9
:1036200048F2C00105E0327835F8220008404CF23B
:103630008001084325F82200317835F8210048F64A
:10364000BF72104080F0300068E00446B2614FF66F
:10365000FF724FF4004381B3BCF1000F15D027E097
:10366000018821F4F8410180018841F400410AE019
:103670003E2C3ED86108E30700D0491C02EA8121B4
:1036800001E043EA8121018040E0B5F85000317843
:10369000284400EB011000F204407CB13E2C15D808
:1036A00061085FEAC47C00D0491C02EA81210180E4
:1036B000707810B1012821D028E00FE0018821F4B2
:1036C000F8410180018841F40041F0E761095FEAB7
:1036D000C46C00D1491E43EA8121E8E7B5F85000E7
:1036E0003178284400EB011000F20C40002CBFD1CF
:1036F000B6E76109E206C4D1491EC2E7B5F8501029
:103700004819317800EB0110A0F80C44317835F8F5
:1037100021004BF68F72104080F44050384325F85A
:1037200021000020F0BD30F8401F41F43F410180EE
:10373000002070470148FDF795BD00009013002060
:10374000B0F844007047000010B500EB42005C0880
:1037500000F5806009D000BF30F8042B01F8012B80
:10376000120A01F8012B641EF6D1DA0701D0008895
:10377000087010BD0020704711B98021A0F84C10CE
:103780000020704710B55B1C00EB42005B0800F5A1
:10379000806009D011F8012B11F8014B42EA042294
:1037A00020F8042B5B1EF5D110BDFEE70907090EBA
:1037B000002804DB00F1E02080F80014704700F0DE
:1037C0000F0000F1E02080F8141D704702E008C8E7
:1037D000121F08C1002AFAD170477047002001E08B
:1037E00001C1121F002AFBD1704700002DE9F04FE4
:1037F000FE488FB090F80080FD48B8F1000F0068D7
:103800000990FC4800680690FB48076806D0B8F1AC
:10381000010F0FD0B8F1020F0CD101E0099800E0C0
:103820000698FCF726FF3946FCF702FDFCF73BFF44
:10383000F2490860F248F34C00250068E8B3DFF86D
:10384000C8B301283CD0F248DFF8C0C30668F1488D
:1038500006F10109D0F800A04FEAEA710AEB116005
:1038600000120C90EC48B8F1000F00680590EB488E
:10387000006807905846006802906FD0E54A5846A5
:103880004CF250331268006813440D93E44B411C12
:10389000A2EB6C0E401E1A68B8F1010F7DD0B8F192
:1038A000020F7BD0B8F1030F79D02560D3480168AF
:1038B000D94801600FB0BDE8F08FFFE72560F9E758
:1038C000B8F1000FF6D0B8F1010F29D0B8F1020F0E
:1038D000F0D0B8F1030FF1D1CD480024DFF84883D0
:1038E0000560D048CBF8005005603846FCF713FF60
:1038F000CE4F0D4606462046FCF7C4FE0022434646
:10390000FCF718FD32462B46FCF7BBFDFCF7E4FE46
:103910000699084447F82400641C802CEBDBC9E7B7
:10392000BC48CBF8005001240560C04D09982860C0
:103930003846FCF7F0FE221FFCF784FEFCF7CCFEB5
:1039400005EB840151F8041C014445F82410641C63
:10395000802CF5DB0121B648ABE7FFE7A7480768F5
:10396000B448874201DDB4480CE2B2484042874285
:1039700002DAB148404205E2B04807EB0C0181424F
:1039800072D23846FCF77EFE4FF0FF32FCF75AFE4B
:10399000CDE90301DFF8848202E084E061E144E2E2
:1039A000CDE908010798FCF76DFEDDE90823FCF777
:1039B000C1FCFCF791FEC8F8000005997A1AA049ED
:1039C0000A609E490892491E884203DD0846C8F8ED
:1039D000000004E09B49884201DAC8F80010D8F8DA
:1039E00000C008980CEB000142F20F703A1844F640
:1039F0001F602160824273D28548FF2E71DDB6F5CB
:103A0000007F6FDB8246B6F5407F13DADDE90351B4
:103A10000E460C98FCF736FE2A463346FCF78AFC25
:103A2000FCF75AFE206002993944CBF80010CAF81E
:103A300000903BE740F264418E4201DACAF8009000
:103A40000298002811DD002F24DDDDE903510E4628
:103A500010E0C8F8001004E07A498842F9DBD8F891
:103A60000010089808448DE108E1002F12DADDE922
:103A700003510E466046FCF705FE2A463346FCF726
:103A800059FCFCF729FE6D49C8F80000491E884220
:103A9000E2DDDEE70C9807EBD77100EB610071E126
:103AA0005C490D603DE1614EDDF824C056F822808E
:103AB000E04505DADFF890C10AEB0C0020600CE06D
:103AC00011D12560B7F5000F01DBCBF8000017F12D
:103AD000FF4F0FD3DBF80010491CCBF8001009E0B2
:103AE0007DE102E107E1DFF85CC10AEB0C01216036
:103AF000CBF80000DBF800100A2903DD45490D9CD6
:103B00000C6005E011F10A0F04DA4249C1F800E047
:103B1000CBF800503F48484904688C4202DC4942D7
:103B20008C4200DA0160521C1A60802A81D11D602B
:103B3000D6F8FC110998441A00D564424349384626
:103B4000FCF77CFBFCF7AFFD002800DA4042384967
:103B50000A68521C0A60082A01DD08220A608442B1
:103B60004FF0000410466FF0020527DAFCF78AFDDB
:103B70002A46FCF767FD834689463846FCF7CBFDAD
:103B800088460546B2465F4646462046FCF77AFD23
:103B90000022254BFCF7CEFB33462A46FCF771FC8E
:103BA0003A464B46FCF76DFCFCF796FD099901443B
:103BB0004AF82410641C802CE5DB77E6FCF762FDF4
:103BC0002A46FCF73FFD89460546B0464E46601C36
:103BD000FCF74FFD3946FCF731FBFCF79CFD334603
:103BE0002A46FCF74EFCFCF777FD31E0020000208E
:103BF00014000020100000200C00002018000020FD
:103C0000040000200800002034000020A0860100ED
:103C1000300000202C0000201C000020200000208C
:103C200038000020240000200000F03FDC020020CB
:103C30003C00002040420F00404B4C00410D03006F
:103C400028000020C0F2FCFF400D030000002041CE
:103C5000D8F8FC21811848F82410641C802CB5DBAE
:103C600024E6FB480768FB4887427DDC40428742E8
:103C70007ADBF94807EB0C0181420FD33846FCF799
:103C800001FD0022F54BFCF7FCFBFCF725FDF44998
:103C900020600860F3480560F34842E007EB470105
:103CA000EF48079A049111440160059ABB1AEF4A44
:103CB00098461360E84A521E914202DD11460160A7
:103CC00003E0EB4A914200DA0260E54849F63F42E0
:103CD00000680D9000EB080144F61F603844216035
:103CE00090427CD2E048FF2E02DCC0F80090DDE577
:103CF000B6F5007F07DADB4A51441160C0F8009046
:103D0000CBF80050D2E5B6F5407F0CDA049A0C9956
:103D100011442160029A3A44CBF80020C0F8009088
:103D2000D4480560C2E540F264418E4201DAC0F831
:103D300000903846FCF7A6FC8B468246CE4ACF4B15
:103D4000FCF79FFBCB4D064689462868FCF79AFC9A
:103D500032464B46FCF7EEFAFCF7BEFC0146286003
:103D60000298002829DD00E00CE040F6B8308742D8
:103D70000ADD0D9B049ABA481A4426E0026802EB59
:103D800008000844206091E5A1460846DDF830802F
:103D9000FCF778FC06460C46504659460022AF4BCD
:103DA000FCF76FFB05460F464046FCF76BFC3B46B5
:103DB0002A46FCF7BFFA324629E040F6B830C7423F
:103DC0000EDA049B0D9AA6481A44A34B02605B1EB0
:103DD0009A4202DC5B429A42D0DA0360CEE71EE0F0
:103DE000A14608460C9EFCF74DFC80460C4650460A
:103DF00059460022994BFCF744FB05460F463046D6
:103E0000FCF740FC2A463B46FCF794FA4246234620
:103E1000FCF790FAFCF760FCC9F8000046E5924810
:103E2000B6F5806F3FF73CAE40E5954E56F8223030
:103E3000069A934209DA17F1FF4F02D30D982060DA
:103E400000E02560CBF8001016E00CD12560B7F536
:103E5000000F01DBCBF8000017F1FF4F0CD3DBF8AC
:103E60000010491CEEE7B7F5000F02DBC4F800E0D4
:103E700000E02560CBF80000DBF800100A2906DD21
:103E8000784942F210730AEB03020A6007E011F16D
:103E90000A0F06DA734AAAF51C5110391160CBF8E3
:103EA000005070486B4A0168914202DC52429142D4
:103EB00000DA02606C4E4846DFF8C881C6F8009010
:103EC000DFF8C491DFF8C4A1642801DA69490D6004
:103ED000FCF7D8FB684F43463A46FCF72BFA002222
:103EE0006B4BFCF743FC0CD83068FCF7CBFB4A4625
:103EF0005346FCF723FC04D25E4822680168114453
:103F000001603068FCF7BEFB4A465346FCF72EFCC6
:103F10000ED23068FCF7B6FB4FF033325D4BFCF746
:103F20000DFC05D253486422016891FBF2F1016057
:103F30003068FCF7A7FBBB463A464346FCF7FAF964
:103F40000022554BFCF712FC36D2C9203060A14646
:103F50002068FCF797FB8A460446504A504BFCF712
:103F600090FADFF8108106460F46D8F80000FCF7FB
:103F700089FB4C4A4C4BFCF784FA3B463246FCF733
:103F8000D9F9FCF7A9FBC8F80000FCF77BFB4FF060
:103F90003332464BFCF775FA07460E46204651462B
:103FA0005A46434BFCF76DFA3A463346FCF7C2F9E2
:103FB000FCF792FBC9F800003E490868401C086005
:103FC00080287FF436AD2E4C3B480D60D4F8FC11B0
:103FD00007687D1A00D56D423948384900680646A1
:103FE000FCF72CF9FCF75FFB002800DA4042854221
:103FF0004FF000051CDADFF8CCA03046FCF78BFB55
:104000000E468146A0464C462846FCF73BFB002264
:104010005346FCF78FF922463346FCF732FAFCF799
:104020005BFBC11948F825106D1C802DEBDB3DE4CE
:1040300030460721FCF772F9FCF735FB54F82510E0
:10404000014444F825106D1C802DF7DB2EE40000A0
:104050001800002040420F00410D030000000840FE
:10406000200000202C00002030000020280000202C
:10407000C0F2FCFF240000209A9999999999A93FD0
:10408000DC0200209999B93FCDCCCCCCCCFC684067
:104090000000594033036940000069407B14AE477B
:1040A000E17A943F5C8FC2F5285CEF3F3333E33F06
:1040B0009999D93F380000201000002000002042CC
:1040C0000C0000200000F03F01E0401E80B20028FC
:1040D000FBD170472DE9F047DFF874A004464FF498
:1040E0008048002241465046FCF708FFA500194FC2
:1040F00000244FF480794FF400760122314638468F
:10410000FCF7FCFE0520FFF7DFFF280401D50122A4
:1041100000E0002249463846FCF7F0FE0520FFF794
:10412000D3FF002231463846FCF7E8FE0520FFF7B2
:10413000CBFF641C6D00E4B2102CDED3012241469B
:104140005046FCF7DBFEBDE8F0470520FFF7BCBF9B
:1041500000100140000C014070B58EB005460024EF
:104160006E460DA92046FEF7BBF8BDF83400C0B27C
:1041700026F81400641CE4B21A2CF2D35FF000009D
:1041800036F8101045F82010401CC0B20628F7D3AE
:10419000BDF80000BDF80210000600EB0140BDF8BC
:1041A000041000EB0120A861BDF80600BDF808105E
:1041B000000600EB0140BDF80A1000EB0120E861A9
:1041C0000EB070BDBAB0FD482890FD482790FD485C
:1041D000DFF8F4A341421E913290002006460546C6
:1041E0003190FA48CDF8ACA0B146D0E90040834602
:1041F00000202E903790FCF795FEFEF7D2F8FDF7E1
:1042000011FEFDF7CFFEFDF7B1FE002000F0B0FA81
:10421000EF48016901290AD14169FE2907D10668E1
:10422000D0F804908468D0F80CB001253795E9489F
:104230004168022904D18168FD2901D1D0F800A08C
:10424000E4480C304168032904D18168FC2901D17C
:1042500000681E90DF4818304168042904D1816845
:10426000FB2901D100682B9040F6B830FCF784FCA4
:10427000DFF864834FF48057002239464046FCF74C
:104280003DFE0120FCF778FC012239464046FCF750
:1042900035FEDFF84883002798F800000028FBD09F
:1042A000CF48FFF759FFCE48C069C11700EB116036
:1042B00006EB2020FCF7DDF92146FBF7F1FFFCF7C8
:1042C000F2F90021C8F814007F1C88F80010052FAF
:1042D000E2DB0020C8F804004146359035B1887013
:1042E0000F464869FCF7C5F9F860BEE0042088F87D
:1042F0000200BAE038780028F7D0B948FFF72CFF61
:1043000000203870B648B846C069C11700EB11608C
:1043100006EB2020FCF7ADF92146FBF7C1FFFCF7C7
:10432000C2F90746C8F81400AD488069C21700EB0F
:10433000126009EB2020FCF79CF95946FBF7B0FF0F
:10434000FCF7B1F90146C8F81000A548FE22A038D4
:10435000027042708570319BC37098F802C080F87B
:1043600004C04FEA176C80F805C04FEA174C80F87C
:1043700006C04FEA172C80F807C007720F0E47726D
:104380000F0C87720F0AC7720173FF2181732A46CF
:10439000C17382EA030141730423C9B2C25C5B1C8E
:1043A000514041730D2BF8DB8D481021A038FCF7EC
:1043B00035FB022D02D1002088F80200FFF716FA23
:1043C000D8F814004746504501DD8649B9601E996A
:1043D000884202DA83494942B960012D05D13A6920
:1043E0002B998A4201DD8049B9602899884201DD14
:1043F0007C49B9602799884202DA7A484042B8601D
:10440000012D01D035B107E039693298814203DDD1
:10441000754800E02E98B860B868404200F0A8F9EE
:104420007868012801D010B11BE0022015E0309817
:104430007969401A00D540426C4988420FDA2F98BA
:104440003969401A00D540426949884207DA3598EF
:10445000401C3590022804DD0120786001E0002036
:1044600035907869309038692F905C4F78780028C3
:104470003FF440AF97F801805949424640396846B9
:10448000FBF760FE002078706B46A8F1070C62E134
:10449000195CFE297DD103EB000E9EF80710FF2961
:1044A000F8D100225FF0010100EB0108491C13F86C
:1044B0000880062988EA0202F6DB9EF8061091427F
:1044C000E8D118449EF8018041799EF8020001EB82
:1044D00000619EF8030002049EF8040002EB002035
:1044E0000B185FEA181019D0012866D002287FF453
:1044F00001AF012DFBD100203590786008F00F004E
:10450000B870C0077AD01846FCF7BCF80022394BC7
:10451000FCF729F8FCF742F9F860EBE608F00F0029
:104520000B286CD2DFE800F0060A0C141D73777FAD
:1045300088E9E500002005462E90DBE65842E0E0E1
:104540002748C069C11700EB116000121F90D1E627
:104550002348C0693493C11700EB11600012299001
:10456000C8E63498FCF78EF804460D461F99299842
:10457000401AFCF787F822462B46FBF7F4FFFCF7BE
:104580000DF904461C49FBF759FE05461F984042A9
:1045900000E0DFE0FCF76DF82946FBF749FEFCF789
:1045A00082F8064600202E900D480125C169C817E3
:1045B00001EB106006EB202022E0A4E080D1F0089F
:1045C000F0D8FFFF00E1F50500943577FC470008BF
:1045D00000F8010800FC0108000C01400000002068
:1045E000BC020020404B4C0040420F00A08601005E
:1045F000400D030000408F400050C34707E07CE0BF
:10460000FCF737F82146FBF74BFEF86036E018461A
:10461000FCF72FF880E752488069C11700EB116062
:104620000012209066E64E4880693393C11700EB74
:10463000116000122A905DE63398FCF723F80546D6
:10464000884620992A98401AFCF71CF82A464346C7
:10465000FBF789FFFCF7A2F883464249FBF7EEFD22
:10466000054620984042FCF704F82946FBF7E0FD98
:10467000FCF719F88146012500202E900120DFF873
:10468000E8803790FCF728FB002022900120CDE93C
:10469000248036A922A8FCF781FA3246002341463D
:1046A0000220FCF7D9FA4A46002308F1040102204F
:1046B000FCF7D2FA2C492246002308310220FCF7ED
:1046C000CBFA29495A4600230C310220FCF7C4FAE0
:1046D00025490122002310310220FCF7BDFA2249AE
:1046E000FE22002314310220FCF7B6FAFCF7AAFAE6
:1046F00000E6022500202E900EE7379800B1012534
:1047000000202E90F6E51949D1F800C015AA042022
:10471000CDF854C051F820C042F820C0001D09282F
:10472000F8DB18F00F0009D001280DD00228DFD1E6
:1047300004202B931C90FB201D90DBE5022016909B
:10474000FD209A461790D5E503201E931990FC2072
:104750001A90CFE5401C6045FFF69AAECAE500000E
:10476000BC02002000007A4400F8010800FC0108A7
:104770002DE9F0411D4E1E4D041E4FF4004709D097
:104780004FF0010212DA01213046FCF7B7FB00229C
:10479000394611E0002239463046FCF7AFFB0022D3
:1047A00001213046FCF7AAFB204612E0394630468C
:1047B000FCF7A4FB002201213046FCF79FFB200000
:1047C00000D56042A84201DD284602E0002800DA58
:1047D0000020FBF757FF074A074BFBF752FEFBF79A
:1047E0007BFFBDE8F04180B2FFF774BC00100140D0
:1047F000809698007D03931B45D63A3F0000803F8A
:104800000000803F000000000000000001020304DF
:10481000060708093448000800000020C401000011
:1048200064090008F4480008C40100205C3C000052
:10483000DC370008014013ED2714081D281B082948
:10484000041A51041A7D041ACD141AF9041704032A
:104850000904120114020202164083044057260282
:1048600001020301031A1A0313C5091B08C1041A24
:10487000BD041AE904192F1182105324F4130A06F7
:1048800032022A401C1C090243571125C032090478
:104890001B01020B13052416100105240110090148
:1048A00004240202052406170107058203081C10D0
:1048B00009048D320A1D07050102432C07058107F3
:1048C0000938442A40072A8107112B0907440A3B6B
:1048D00004441B5925FC12241408412642081A05D9
:1048E000101A4D101A9304C11A41182A351C1904C4
:0448F0001A2904007D
:04000005080000ED02
:00000001FF
